:100000000C9446000C9465000C9465000C946500FB
:100010000C9465000C9465000C9465000C946500CC
:100020000C9465000C9465000C9465000C946500BC
:100030000C9465000C9465000C9465000C946500AC
:100040000C9465000C9465000C9465000C9465009C
:100050000C9465000C9465000C9465000C9465008C
:100060000C9465000C9465000C9465000C9465007C
:100070000C9465000C9465000C9465000C9465006C
:100080000C9465000C9465000C94650011241FBE4F
:10009000CFEFD0E1DEBFCDBF11E0A0E0B1E0E0E006
:1000A000F1E000E00BBF02C007900D92A030B10755
:1000B000D9F711E0A0E0B1E001C01D92A430B10772
:1000C000E1F70E946E000C947E000C94000088B34F
:1000D0008FEF88BB089588B318BA08958FEF87BB58
:1000E0004FEF28E833E188B348BBC9010197F1F726
:1000F00088B318BAC9010197F1F7F5CFF894FFCF8B
:00000001FF
